{
  "contractName": "Funding_control",
  "abi": [
    {
      "constant": true,
      "inputs": [
        {
          "name": "",
          "type": "uint256"
        }
      ],
      "name": "projects",
      "outputs": [
        {
          "name": "projectId",
          "type": "uint256"
        },
        {
          "name": "projectName",
          "type": "string"
        },
        {
          "name": "startDate",
          "type": "uint256"
        },
        {
          "name": "endDate",
          "type": "uint256"
        },
        {
          "name": "fundraiserId",
          "type": "uint256"
        },
        {
          "name": "backerNum",
          "type": "uint256"
        },
        {
          "name": "voteNum",
          "type": "uint256"
        },
        {
          "name": "goal",
          "type": "uint256"
        },
        {
          "name": "raisedMoney",
          "type": "uint256"
        },
        {
          "name": "projectStatus",
          "type": "uint8"
        }
      ],
      "payable": false,
      "stateMutability": "view",
      "type": "function"
    },
    {
      "constant": true,
      "inputs": [],
      "name": "backersCount",
      "outputs": [
        {
          "name": "",
          "type": "uint256"
        }
      ],
      "payable": false,
      "stateMutability": "view",
      "type": "function"
    },
    {
      "constant": true,
      "inputs": [],
      "name": "fundraisersCount",
      "outputs": [
        {
          "name": "",
          "type": "uint256"
        }
      ],
      "payable": false,
      "stateMutability": "view",
      "type": "function"
    },
    {
      "constant": true,
      "inputs": [
        {
          "name": "",
          "type": "address"
        }
      ],
      "name": "backers",
      "outputs": [
        {
          "name": "backerAddress",
          "type": "address"
        }
      ],
      "payable": false,
      "stateMutability": "view",
      "type": "function"
    },
    {
      "constant": true,
      "inputs": [],
      "name": "projectsCount",
      "outputs": [
        {
          "name": "",
          "type": "uint256"
        }
      ],
      "payable": false,
      "stateMutability": "view",
      "type": "function"
    },
    {
      "constant": true,
      "inputs": [
        {
          "name": "",
          "type": "uint256"
        }
      ],
      "name": "fundraisers",
      "outputs": [
        {
          "name": "id",
          "type": "uint256"
        },
        {
          "name": "fundraiserAddress",
          "type": "address"
        },
        {
          "name": "projectNum",
          "type": "uint256"
        }
      ],
      "payable": false,
      "stateMutability": "view",
      "type": "function"
    },
    {
      "inputs": [],
      "payable": false,
      "stateMutability": "nonpayable",
      "type": "constructor"
    },
    {
      "constant": false,
      "inputs": [],
      "name": "newBacker",
      "outputs": [],
      "payable": false,
      "stateMutability": "nonpayable",
      "type": "function"
    },
    {
      "constant": false,
      "inputs": [
        {
          "name": "projectId",
          "type": "uint256"
        },
        {
          "name": "backedMoney",
          "type": "uint256"
        }
      ],
      "name": "backProject",
      "outputs": [],
      "payable": true,
      "stateMutability": "payable",
      "type": "function"
    },
    {
      "constant": false,
      "inputs": [
        {
          "name": "_projectId",
          "type": "uint256"
        }
      ],
      "name": "voteProject",
      "outputs": [
        {
          "name": "",
          "type": "bool"
        },
        {
          "name": "",
          "type": "uint256"
        },
        {
          "name": "",
          "type": "uint256"
        }
      ],
      "payable": false,
      "stateMutability": "nonpayable",
      "type": "function"
    }
  ],
  "bytecode": "0x60806040526000600355600060045560006005553480156200002057600080fd5b50620000316200021a60201b60201c565b62000062604051806060016040528060278152602001620012eb6027913960008060016002620002e960201b60201c565b62000093604051806060016040528060378152602001620012b46037913960008060016005620002e960201b60201c565b620000e06040518060400160405280601581526020017f524f4c4c5320e79eace99693e68db2e694b6e58298000000000000000000000081525060008060016003620002e960201b60201c565b6200012d6040518060400160405280601181526020017f6e75626f20e8978de9afa8e590b8e7aea100000000000000000000000000000081525060008060016006620002e960201b60201c565b6200017a6040518060400160405280601781526020017f5445414d4f534120e699bae685a7e6b3a1e88cb6e6a99f00000000000000000081525060008060016064620002e960201b60201c565b620001c76040518060400160405280601581526020017f426167736d61727420e78b82e68cbae8838ce58c85000000000000000000000081525060008060016050620002e960201b60201c565b620002146040518060400160405280601881526020017f4d6574726f42616720e59f8ee5b882e7949fe5ad98e58c85000000000000000081525060008060016003620002e960201b60201c565b620004b6565b600073b6401624ceea79088f71aa2f42942fe0556cd2b69050604051806060016040528060055481526020018273ffffffffffffffffffffffffffffffffffffffff16815260200160008152506002600060056000815460010191905081905581526020019081526020016000206000820151816000015560208201518160010160006101000a81548173ffffffffffffffffffffffffffffffffffffffff021916908373ffffffffffffffffffffffffffffffffffffffff1602179055506040820151816002015590505050565b6040518061014001604052806004548152602001868152602001858152602001848152602001838152602001600081526020016000815260200182815260200160008152602001600060058111156200033e57fe5b8152506001600060046000815460010191905081905581526020019081526020016000206000820151816000015560208201518160010190805190602001906200038a92919062000407565b5060408201518160020155606082015181600301556080820151816004015560a0820151816005015560c0820151816006015560e0820151816007015561010082015181600801556101208201518160090160006101000a81548160ff02191690836005811115620003f857fe5b02179055509050505050505050565b828054600181600116156101000203166002900490600052602060002090601f016020900481019282601f106200044a57805160ff19168380011785556200047b565b828001600101855582156200047b579182015b828111156200047a5782518255916020019190600101906200045d565b5b5090506200048a91906200048e565b5090565b620004b391905b80821115620004af57600081600090555060010162000495565b5090565b90565b610dee80620004c66000396000f3fe6080604052600436106100865760003560e01c80639d3b4355116100595780639d3b435514610250578063b85dfb801461027b578063c73b302e1461030c578063ecf147d214610337578063f38f72fb1461034e57610086565b8063107046bd1461008b5780631d565e781461018c57806340e9e5a3146101b757806392f0eeab146101ef575b600080fd5b34801561009757600080fd5b506100c4600480360360208110156100ae57600080fd5b81019080803590602001909291905050506103d7565b604051808b8152602001806020018a815260200189815260200188815260200187815260200186815260200185815260200184815260200183600581111561010857fe5b60ff16815260200182810382528b818151815260200191508051906020019080838360005b8381101561014857808201518184015260208101905061012d565b50505050905090810190601f1680156101755780820380516001836020036101000a031916815260200191505b509b50505050505050505050505060405180910390f35b34801561019857600080fd5b506101a16104d0565b6040518082815260200191505060405180910390f35b6101ed600480360360408110156101cd57600080fd5b8101908080359060200190929190803590602001909291905050506104d6565b005b3480156101fb57600080fd5b506102286004803603602081101561021257600080fd5b810190808035906020019092919050505061058f565b6040518084151515158152602001838152602001828152602001935050505060405180910390f35b34801561025c57600080fd5b50610265610912565b6040518082815260200191505060405180910390f35b34801561028757600080fd5b506102ca6004803603602081101561029e57600080fd5b81019080803573ffffffffffffffffffffffffffffffffffffffff169060200190929190505050610918565b604051808273ffffffffffffffffffffffffffffffffffffffff1673ffffffffffffffffffffffffffffffffffffffff16815260200191505060405180910390f35b34801561031857600080fd5b50610321610956565b6040518082815260200191505060405180910390f35b34801561034357600080fd5b5061034c61095c565b005b34801561035a57600080fd5b506103876004803603602081101561037157600080fd5b8101908080359060200190929190505050610a56565b604051808481526020018373ffffffffffffffffffffffffffffffffffffffff1673ffffffffffffffffffffffffffffffffffffffff168152602001828152602001935050505060405180910390f35b6001602052806000526040600020600091509050806000015490806001018054600181600116156101000203166002900480601f0160208091040260200160405190810160405280929190818152602001828054600181600116156101000203166002900480156104895780601f1061045e57610100808354040283529160200191610489565b820191906000526020600020905b81548152906001019060200180831161046c57829003601f168201915b5050505050908060020154908060030154908060040154908060050154908060060154908060070154908060080154908060090160009054906101000a900460ff1690508a565b60035481565b60016000838152602001908152602001600020600501600081548092919060010191905055508060016000848152602001908152602001600020600801600082825401925050819055506000803373ffffffffffffffffffffffffffffffffffffffff1673ffffffffffffffffffffffffffffffffffffffff1681526020019081526020016000206001018290806001815401808255809150509060018203906000526020600020016000909192909190915055505050565b60008060008084101580156105a657506004548411155b610618576040517f08c379a00000000000000000000000000000000000000000000000000000000081526004018080602001828103825260108152602001807f496e76616c69642070726f6a656374210000000000000000000000000000000081525060200191505060405180910390fd5b6000809050600080905060008090505b6000803373ffffffffffffffffffffffffffffffffffffffff1673ffffffffffffffffffffffffffffffffffffffff168152602001908152602001600020600101805490508110156106e8576000803373ffffffffffffffffffffffffffffffffffffffff1673ffffffffffffffffffffffffffffffffffffffff16815260200190815260200160002060010181815481106106c057fe5b90600052602060002001548714156106db57600192506106e8565b8080600101915050610628565b50600015158215151415610764576040517f08c379a000000000000000000000000000000000000000000000000000000000815260040180806020018281038252600f8152602001807f4e6f74206261636b6564207965742e000000000000000000000000000000000081525060200191505060405180910390fd5b60008090505b6000803373ffffffffffffffffffffffffffffffffffffffff1673ffffffffffffffffffffffffffffffffffffffff1681526020019081526020016000206002018054905081101561082a576000803373ffffffffffffffffffffffffffffffffffffffff1673ffffffffffffffffffffffffffffffffffffffff168152602001908152602001600020600201818154811061080257fe5b906000526020600020015487141561081d576001915061082a565b808060010191505061076a565b506001151581151514156108a6576040517f08c379a000000000000000000000000000000000000000000000000000000000815260040180806020018281038252600e8152602001807f416c726561647920766f7465642100000000000000000000000000000000000081525060200191505060405180910390fd5b60016000878152602001908152602001600020600601600081548092919060010191905055506108d586610aa0565b6001600088815260200190815260200160002060060154600160008981526020019081526020016000206005015494509450945050509193909250565b60055481565b60006020528060005260406000206000915090508060000160009054906101000a900473ffffffffffffffffffffffffffffffffffffffff16905081565b60045481565b60608060405180606001604052803373ffffffffffffffffffffffffffffffffffffffff168152602001838152602001828152506000803373ffffffffffffffffffffffffffffffffffffffff1673ffffffffffffffffffffffffffffffffffffffff16815260200190815260200160002060008201518160000160006101000a81548173ffffffffffffffffffffffffffffffffffffffff021916908373ffffffffffffffffffffffffffffffffffffffff1602179055506020820151816001019080519060200190610a31929190610d50565b506040820151816002019080519060200190610a4e929190610d50565b509050505050565b60026020528060005260406000206000915090508060000154908060010160009054906101000a900473ffffffffffffffffffffffffffffffffffffffff16908060020154905083565b6000808210158015610ab457506004548211155b610b26576040517f08c379a00000000000000000000000000000000000000000000000000000000081526004018080602001828103825260108152602001807f496e76616c69642070726f6a656374210000000000000000000000000000000081525060200191505060405180910390fd5b6001600083815260200190815260200160002060050154600260016000858152602001908152602001600020600601540210158015610b92575060016000838152602001908152602001600020600701543073ffffffffffffffffffffffffffffffffffffffff163110155b15610bdf5760036001600084815260200190815260200160002060090160006101000a81548160ff02191690836005811115610bca57fe5b0217905550610bd882610be9565b9050610be4565b600090505b919050565b600060016000838152602001908152602001600020600701543073ffffffffffffffffffffffffffffffffffffffff16311015610c8e576040517f08c379a00000000000000000000000000000000000000000000000000000000081526004018080602001828103825260118152602001807f4e6f7420656e6f756768206d6f6e65792100000000000000000000000000000081525060200191505060405180910390fd5b6000600260006001600086815260200190815260200160002060040154815260200190815260200160002060010160009054906101000a900473ffffffffffffffffffffffffffffffffffffffff1690508073ffffffffffffffffffffffffffffffffffffffff166108fc670de0b6b3a76400006001600087815260200190815260200160002060070154029081150290604051600060405180830381858888f19350505050158015610d45573d6000803e3d6000fd5b506001915050919050565b828054828255906000526020600020908101928215610d8c579160200282015b82811115610d8b578251825591602001919060010190610d70565b5b509050610d999190610d9d565b5090565b610dbf91905b80821115610dbb576000816000905550600101610da3565b5090565b9056fea165627a7a72305820899020f2caf0d283db4668484a553486d6a5c9b09736b0558f5f717c19ae388e002950555255532041697220692d2de585a8e79083e69c80e5b08fe79a84e89ebae6978be99d9ce99bbbe7a9bae6b0a3e6b885e6b7a8e6a99f4d4f46542d2de4b896e7958ce7acace4b880e6acbee7ad86e99bbbe99ab1e5bda2e694afe69eb6",
  "source": "pragma solidity ^0.5.8;\n\ncontract Funding_control {\n\n    struct Backer {\n        //uint backerId;\n        address backerAddress;\n        uint[] backedProject;\n        uint[] voteProject;\n    }\n\n    enum Status {Initial, Funding, End, Agree, Disagree, Voting}\n    struct Project {\n        uint projectId;\n        string projectName;\n        uint startDate;\n        uint endDate;\n        uint fundraiserId;\n        uint backerNum;\n        uint voteNum;\n        uint goal;\n        uint raisedMoney;\n        Status projectStatus;\n    }\n\n    struct Fundraiser {\n        uint id;\n        address payable fundraiserAddress;\n        uint projectNum;\n    }\n\n    mapping(address => Backer) public backers;\n    mapping(uint => Project) public projects;\n    mapping(uint => Fundraiser) public fundraisers;\n\n    uint public backersCount = 0;\n    uint public projectsCount = 0;\n    uint public fundraisersCount = 0;\n\n    // Constructor\n    constructor() public {\n        newFundraiser();\n        newProject(\"MOFT--世界第一款筆電隱形支架\", 0, 0, 1, 2);\n        newProject(\"PURUS Air i--全球最小的螺旋靜電空氣清淨機\", 0, 0, 1, 5);\n        newProject(\"ROLLS 瞬間捲收傘\", 0, 0, 1, 3);\n        newProject(\"nubo 藍鯨吸管\", 0, 0, 1, 6);\n        newProject(\"TEAMOSA 智慧泡茶機\", 0, 0, 1, 100);\n        newProject(\"Bagsmart 狂挺背包\", 0, 0, 1, 80);\n        newProject(\"MetroBag 城市生存包\", 0, 0, 1, 3);\n    }\n\n    function newBacker() public {\n        uint[] memory backedProjects;\n        uint[] memory voteProjects;\n        backers[msg.sender] = Backer(msg.sender, backedProjects, voteProjects);\n    }\n\n    function newProject(string memory _name, uint start, uint end, uint _fid, uint _goal) private {\n        projects[++projectsCount] = Project(projectsCount, _name, start, end, _fid, 0, 0, _goal, 0, Status.Initial);\n    }\n\n    function newFundraiser() private {\n        address payable fundraiser0 = 0xb6401624CeEA79088F71Aa2f42942fE0556cd2B6;\n        fundraisers[++fundraisersCount] = Fundraiser(fundraisersCount, fundraiser0, 0);\n    }\n\n    // backers back the project\n    function backProject(uint projectId, uint backedMoney) public payable {\n        // check if the backed date is valid\n        //require((curDate > projects[projectId].startDate && curDate < projects[projectId].endDate), \"Not valid date!\");\n        projects[projectId].backerNum++;\n        projects[projectId].raisedMoney += backedMoney;\n        backers[msg.sender].backedProject.push(projectId);\n    }\n\n    // backer vote\n    function voteProject(uint _projectId) public returns(bool, uint, uint) {\n        require((_projectId >= 0 && _projectId <= projectsCount), \"Invalid project!\");\n        bool isBacked = false;\n        bool isVoted = false;\n        for (uint i = 0; i < backers[msg.sender].backedProject.length; i++) {\n            if (_projectId == backers[msg.sender].backedProject[i]) {\n                isBacked = true;\n                break;\n            }\n        }\n        if (isBacked == false) revert(\"Not backed yet.\");\n        for (uint i = 0; i < backers[msg.sender].voteProject.length; i++) {\n            if (_projectId == backers[msg.sender].voteProject[i]) {\n                isVoted = true;\n                break;\n            }\n        }\n        if (isVoted == true) revert(\"Already voted!\");\n\n        projects[_projectId].voteNum++;\n        return (updateProjectStatus(_projectId), projects[_projectId].voteNum, projects[_projectId].backerNum);\n    }\n\n    // check if proposal is agreed (yes: transfer money; no: reject the proposal)\n    function updateProjectStatus(uint _projectId) private returns(bool) {\n        require(_projectId >= 0 && _projectId <= projectsCount, \"Invalid project!\");\n        if (projects[_projectId].voteNum * 2 >= projects[_projectId].backerNum && address(this).balance >= projects[_projectId].goal) {\n            projects[_projectId].projectStatus = Status.Agree;\n            return transferFund(_projectId);\n        } else return false;\n    }\n    \n    // transfer money to fundraiser\n    function transferFund(uint _projectId) private returns (bool){\n        require(address(this).balance >= projects[_projectId].goal, \"Not enough money!\");\n        address payable fundraiser = fundraisers[projects[_projectId].fundraiserId].fundraiserAddress;\n        fundraiser.transfer(projects[_projectId].goal * 1 ether);\n        return true;\n    }\n    // reject proposal\n\n    // check if project is expired\n    /*function projectExpired(uint projectId, uint curDate) public {\n        if (projects[projectId].endDate < curDate) {\n            projects[projectId].projectStatus = Status.End;\n        }\n    }*/\n\n}",
  "sourcePath": "/Users/ktgincot/Documents/ktgincot/Computer_Science/107_2/Blockchain/crowd_funding/contracts/Funding_control.sol",
  "compiler": {
    "name": "solc",
    "version": "0.5.8+commit.23d335f2.Emscripten.clang"
  },
  "schemaVersion": "3.0.11",
  "updatedAt": "2019-06-21T15:30:04.664Z",
  "devdoc": {
    "methods": {}
  },
  "userdoc": {
    "methods": {}
  }
}